S00A00004D432E737265638A
S113000014C029C12DC02CC02BC02AC029C028C0AF
S113001027C026C025C024C023C022C021C020C0C0
S11300201FC01EC01DC01CC01BC011241FBECFE5B5
S1130030D2E0DEBFCDBF10E0A0E6B0E0E2E1F5E043
S113004002C005900D92AA36B107D9F720E0AAE6BE
S1130050B0E001C01D92A438B207E1F7B5D157C290
S1130060CFCF86B1876886B980E487B91ABA1BBA3C
S1130070089590E497B91ABA1BBA883058F497B126
S1130080892B87B986B1806486B93699FECF84B14D
S113009095B108958FEF9FEF0895CF93DF93D82FF5
S11300A010926B0010926A00C0E00DC08D2FE1DF4A
S11300B020916A0030916B00820F931F90936B0024
S11300C080936A00CF5FC03188F380916A00909179
S11300D06B00929582958F7089279F7089279093E2
S11300E06B0080936A00DF91CF9108950F931F9363
S11300F0CF93DF93CDB7DEB72E970FB6F894DEBF5C
S11301000FBECDBFAC018AE0E0E6F0E0DE0111965F
S113011001900D928A95E1F78A0116950795169537
S11301200795169507959801A5ECB0E2E4D1FC017A
S1130130F295E295EF70EF27FF70EF27EB8728EE3B
S113014033E0E29FC001E39F900DF29F900D1124D4
S11301509A01281B390B3695279536952795ABE7D9
S1130160B4E1C9D1969587958C879A0136952795E0
S113017036952795C0D19C013695279564E6629FF4
S1130180C001639F900D11249A01281B390BADEC1B
S1130190BCECB1D19695879596958795969587955C
S11301A08D879A01A8D1969587959695879596956A
S11301B087959C01220F331F880F991F880F991F61
S11301C0880F991F820F931F9A01281B390B2E87C2
S11301D080E02AC0EBE0F0E0EC0FFD1FE80FF11D1A
S11301E09081E1E0F0E0EC0FFD1FE90FF11D90813B
S11301F098BB92B3977E92BB22B380FF02C038E0D3
S113020001C030E081FF02C090E101C090E0932B77
S1130210922B92BB3FE795EB21E031509040204078
S1130220E1F700C000008F5F8430A0F22E960FB675
S1130230F894DEBF0FBECDBFDF91CF911F910F9118
S1130240089587B38FEF87BB88B38F6788BB81B36B
S1130250886181BB08951F920F920FB60F921124EB
S11302600F900FBE0F901F90189584B3806F84BBBE
S113027084B3887F84BB0895CF93DF93CDB7DEB773
S113028027970FB6F894DEBF0FBECDBF81E08983F8
S113029082E08A8384E08B8380E18C8380E28D8397
S11302A080E48E8380E88F8380E028C095B39F70BC
S11302B095BB25B3E4E0F0E0EC0FFD1FE80FF11D62
S11302C09081922B95BBEFECF4E83197F1F700C0E5
S11302D0000090E010C033B3E1E0F0E0EC0FFD1F4C
S11302E0E90FF11D2081232329F0282F220F820FEB
S11302F0890F07C09F5F933070F38F5F8430B0F233
S11303008CE027960FB6F894DEBF0FBECDBFDF9109
S1130310CF910895FF920F931F93CF93DF93CCE077
S1130320F12CD0E047C00D2F10E0C801DFDECC3047
S113033011F4A2DFC82FC93001F168F0CB30A1F06D
S113034018F0CC3011F127C0DD0FCD2FCC0FCC0F1E
S1130350DC0FCCE020C0DD0F8D2F880F880FD80F65
S1130360DC0FDF5FCCE017C0CDECDC9FD12D112476
S1130370D695D695D695CCE00EC081E0F11080E0FC
S1130380F82ECCE008C0C801B1DE76DFC82F882380
S113039011F08C30C1F32FEF80E792E021508040C0
S11303A09040E1F700C00000C93009F4BCCFCC3064
S11303B009F4B9CFFF2009F4B6CF8D2FDF91CF9187
S11303C01F910F91FF9008953CDF4FDF4ADE81B308
S11303D0816681BB80E006C0E82FF0E0E459FF4F5E
S11303E080838F5F8830C0F3F12C5EC00F2D10E046
S11303F004591F4FD8018C91C82FD0E04EDE9C01C8
S1130400A8E8B3E178D02FEF33E040E050E051D0DA
S1130410CC0FDD1FCC58DF4F39832883D801EC91F2
S1130420F0E0EE0FFF1FEC58FF4F808191815EDEFC
S113043023DF893079F582B38F7982BB82B38062FE
S113044082BB68DFC82F82B38F7982BB82B380649A
S113045082BB60DF92B39F7992BBC83020F58830AD
S113046010F590E015C0292F30E0F901E459FF4F51
S1130470408184130CC09C1751F0EC2FF0E0E45938
S1130480FF4F50814083F901E459FF4F50839F5F30
S1130490983048F3BFEFE0E7F2E0B150E040F040BD
S11304A0E1F700C00000F39427E02F1508F09ECF79
S11304B09BCFA1E21A2EAA1BBB1BFD010DC0AA1FD4
S11304C0BB1FEE1FFF1FA217B307E407F50720F0B9
S11304D0A21BB30BE40BF50B661F771F881F991F34
S11304E01A9469F760957095809590959B01AC017D
S11304F0BD01CF010895A29FB001B39FC001A39F86
S113050001D0B29F700D811D1124911D0895F8949E
S1050510FFCF17
S10D05123F065B4F666D7D077F6FA7
S9030000FC
